:04000000FEEFBFF060
:1010000000269E783EEEE9913E13CECC3EAAAA2A57
:101010003FD1F717378071313F59535320546572D0
:101020006D6F6D6574726F2E2E2E00566572696637
:101030006971756520636F6E6578616F0046616CDC
:101040006861206E6F2073656E736F722100496E48
:10105000696369616E646F205049432E2E2E0041F2
:101060002D422856293A0054656D703A20002525F6
:1010700030256464002043202020002056202020BA
:101080000025642E00002A50D96EDA6ADECF2DF0DA
:10109000DDCF2EF02DC0F6FF2EC0F7FF000EF86E4C
:1010A0000F0EF76403D00800F55005D0F6CFE1FF2E
:1010B000F7CFE2FFE750250AD8A461EF08F063EF0D
:1010C00008F095EF0CF02A50D96EDA6ADE2A000E8D
:1010D000DD220001F96B000EF86FF8C05FF0FA69CD
:1010E000FB69306ABBEF08F05F802A50D96EDA6A7C
:1010F000DE2A000EDD22BBEF08F05F8275EF08F0FC
:101100005F8475EF08F05F8675EF08F05F8875EF14
:1011100008F0010E306EBBEF08F02A50D96EDA6A83
:10112000DECF2DF0DDCF2EF02DC0F6FF2EC0F7FF65
:10113000000EF86E0F0EF76403D00800F55005D0CE
:10114000F6CFE1FFF7CFE2FFE750200AD8B483EFF4
:1011500008F0030AD8B486EF08F0080AD8B480EF84
:1011600008F0060AD8B474EF08F01D0AD8B47DEF71
:1011700008F089EF08F03050D8B4C1EF08F0C3EFA1
:1011800008F08DEF08F05FA0C8EF08F0CAEF08F094
:10119000CBEF08F05F922AC001F02BC002F0BCEC4C
:1011A0001FF001C0F8F002C0F9F00001F9BFDDEF57
:1011B00008F0DBEF08F0E2EF08F05F80F86DF91F50
:1011C000D8B0F92B2A50D96EDA6ADECF2DF0DDCFF8
:1011D0002EF02DC0F6FF2EC0F7FF000EF86E0F0E9A
:1011E000F76403D00800F55005D0F6CFE1FFF7CF44
:1011F000E2FFE7502E0AD8A400EF09F002EF09F051
:1012000012EF09F02A50D96EDA6ADE2A000EDD22CA
:101210002AC001F02BC002F0BCEC1FF001C0FAF0B4
:1012200002C0FBF02A50D96EDA6ADECF2DF0DDCF96
:101230002EF02DC0F6FF2EC0F7FF000EF86E0F0E39
:10124000F76403D00800F55005D0F6CFE1FFF7CFE3
:10125000E2FFE750630AD8A430EF09F032EF09F05B
:101260004FEF09F02A50D96EDA6ADE2A000EDD222D
:101270002BC0D9FF2CC0DAFFDF50DF2ADF2AD96E5E
:10128000DA6ADF50316E29C009F031C00AF02FEC64
:1012900020F009C029F00AC02AF0BDEF0CF02A5056
:1012A000D96EDA6ADECF36F0DDCF37F036C0F6FF22
:1012B00037C0F7FF000EF86E0F0EF76403D008007A
:1012C000F55005D0F6CFE1FFF7CFE2FFE750316EE2
:1012D00092EF09F0364A372A36C0F6FF37C0F7FFDB
:1012E000000EF86E0F0EF76403D00800F55005D01D
:1012F000F6CFE1FFF7CFE2FFE750680AD8A483EF0B
:1013000009F085EF09F0BDEF09F0480E316E364A5D
:10131000372ABDEF09F0690E316EBDEF09F0316A71
:10132000BDEF09F03150580AD8B48BEF09F03C0AF0
:10133000D8B48BEF09F00C0AD8B46AEF09F0010AAF
:10134000D8B48BEF09F0070AD8B48BEF09F0010A83
:10135000D8B48BEF09F01B0AD8B487EF09F0010A63
:10136000D8B48BEF09F00D0AD8B48BEF09F0020A5C
:10137000D8B487EF09F08FEF09F036C0F6FF37C019
:10138000F7FF000EF86E0F0EF76403D00800F5505B
:1013900005D0F6CFE1FFF7CFE2FFE750640AD8B4FB
:1013A000D4EF09F0D6EF09F03DEF0AF036C0F6FFB2
:1013B00037C0F7FF000EF86E0F0EF76403D0080079
:1013C000F55005D0F6CFE1FFF7CFE2FFE750690A0D
:1013D000D8A4EDEF09F0EFEF09F06FEF0AF03DEF61
:1013E0000AF02BC0D9FF2CC0DAFF020EDF26DF5C2B
:1013F000D96EDA6ADECF32F0DECF33F054EF0AF086
:101400002BC0D9FF2CC0DAFF020EDF26DF5CD96EBD
:10141000DA6ADECF32F0DECF33F054EF0AF02BC0C1
:10142000D9FF2CC0DAFFDF50DF2ADF2AD96EDA6A53
:10143000DF50326E336A32BE330654EF0AF02BC0EF
:10144000D9FF2CC0DAFF020EDF26DF5CD96EDA6A24
:10145000DECF32F0DECF33F054EF0AF02BC0D9FFED
:101460002CC0DAFF020EDF26DF5CD96EDA6ADECF2F
:1014700032F0DECF33F054EF0AF03150480AD8B4DE
:101480000FEF0AF0200AD8B400EF0AF0010AD8B42E
:10149000F1EF09F01D0AD8B41FEF0AF00E0AD8B414
:1014A0002EEF0AF054EF0AF0010E36242D6E000ED6
:1014B00037202E6E2A50D96EDA6A2DC0DEFF2EC07C
:1014C000DDFF29C017F032C018F033C019F063EC0B
:1014D0001AF017C029F018C02AF0BDEF0CF036C082
:1014E000F6FF37C0F7FF000EF86E0F0EF76403D05B
:1014F0000800F55005D0F6CFE1FFF7CFE2FFE75047
:10150000780AD8B486EF0AF088EF0AF021EF0BF0E2
:1015100036C0F6FF37C0F7FF000EF86E0F0EF76407
:1015200003D00800F55005D0F6CFE1FFF7CFE2FF7A
:10153000E750580AD8B49FEF0AF0A1EF0AF021EF64
:101540000BF036C0F6FF37C0F7FF000EF86E0F0E37
:10155000F76403D00800F55005D0F6CFE1FFF7CFD0
:10156000E2FFE7506F0AD8B4B8EF0AF0BAEF0AF01A
:1015700021EF0BF036C0F6FF37C0F7FF000EF86E14
:101580000F0EF76403D00800F55005D0F6CFE1FF49
:10159000F7CFE2FFE750750AD8A4D1EF0AF0D3EFF6
:1015A0000AF0A6EF0BF021EF0BF02BC0D9FF2CC0F7
:1015B000DAFF020EDF26DF5CD96EDA6ADECF32F0A8
:1015C000DECF33F038EF0BF02BC0D9FF2CC0DAFFA1
:1015D000020EDF26DF5CD96EDA6ADECF32F0DECFB4
:1015E00033F038EF0BF02BC0D9FF2CC0DAFFDF50FF
:1015F000DF2ADF2AD96EDA6ADF502D6E2D50326E67
:10160000336A38EF0BF02BC0D9FF2CC0DAFF020E83
:10161000DF26DF5CD96EDA6ADECF32F0DECF33F060
:1016200038EF0BF02BC0D9FF2CC0DAFF020EDF26FB
:10163000DF5CD96EDA6ADECF32F0DECF33F038EF1E
:101640000BF03150480AD8B4F3EF0AF0200AD8B4AE
:10165000E4EF0AF0010AD8B4D5EF0AF01D0AD8B4B5
:1016600003EF0BF00E0AD8B412EF0BF038EF0BF0CB
:10167000010E36242D6E000E37202E6E2A50D96EA4
:10168000DA6A2DC0DEFF2EC0DDFF83EF0BF029C02C
:1016900017F032C018F033C019F0E4EC1CF017C09A
:1016A00029F018C02AF0BDEF0CF029C017F032C0A5
:1016B00018F033C019F0A0EC1DF017C029F018C0C5
:1016C0002AF0BDEF0CF029C017F032C018F033C07B
:1016D00019F036C0F6FF37C0F7FF000EF86E0F0E98
:1016E000F76403D00800F55005D0F6CFE1FFF7CF3F
:1016F000E2FFE7501A6E60EC19F017C029F018C02D
:101700002AF0BDEF0CF036C0F6FF37C0F7FF000E31
:10171000F86E0F0EF76403D00800F55005D0F6CF31
:10172000E1FFF7CFE2FFE750580AD8B463EF0BF0C0
:10173000370AD8B447EF0BF01A0AD8B455EF0BF0BC
:101740000D0AD8B463EF0BF0A6EF0BF036C0F6FF2E
:1017500037C0F7FF000EF86E0F0EF76403D00800D5
:10176000F55005D0F6CFE1FFF7CFE2FFE7506E0A64
:10177000D8A4BDEF0BF0BFEF0BF05BEF0CF032EF36
:101780000CF02BC0D9FF2CC0DAFFDF50DF2ADF2A94
:10179000D96EDA6ADECF2DF0DDCF2EF02DC0D9FF65
:1017A0002EC0DAFFF6C0DEFFF7C0DDFF49EF0CF018
:1017B0002BC0D9FF2CC0DAFFDF50DF2ADF2AD96E19
:1017C000DA6ADECF2DF0DDCF2EF02DC0D9FF2EC08E
:1017D000DAFFF6C0DEFFF7C0DDFF49EF0CF02BC0EB
:1017E000D9FF2CC0DAFFDF50DF2ADF2AD96EDA6A90
:1017F000DECF2DF0DDCF2EF02DC0D9FF2EC0DAFFC9
:10180000F6C0DFFF49EF0CF02BC0D9FF2CC0DAFF88
:10181000DF50DF2ADF2AD96EDA6ADECF2DF0DDCF86
:101820002EF02DC0D9FF2EC0DAFFF6C0DEFFF7C0C4
:10183000DDFF49EF0CF02BC0D9FF2CC0DAFFDF50E1
:10184000DF2ADF2AD96EDA6ADECF2DF0DDCF2EF067
:101850002DC0D9FF2EC0DAFFF6C0DEFFF7C0DDFFD6
:1018600049EF0CF03150480AD8B4EFEF0BF0200AE2
:10187000D8B4D8EF0BF0010AD8B4C1EF0BF01D0AB1
:10188000D8B404EF0CF00E0AD8B41BEF0CF049EFFB
:101890000CF0010E36242D6E000E37202E6E2A50CD
:1018A000D96EDA6A2DC0DEFF2EC0DDFF2A6A000E77
:1018B000296EBDEF0CF02A50D96EDA6ADECF2DF01A
:1018C000DDCF2EF02DC0F6FF2EC0F7FF000EF86E14
:1018D0000F0EF76403D00800F55005D0F6CFE1FFF6
:1018E000F7CFE2FFE750250AD8A479EF0CF07BEFA1
:1018F0000CF08DEF0CF02A50D96EDA6ADE2A000E59
:10190000DD22026A250E016E29C003F048EC21F0A9
:101910002A6A010E296EBDEF0CF02A50D96EDA6AE0
:10192000DE2A000EDD2256EF0CF02A50D96EDA6A5C
:10193000DECF2DF0DDCF2EF02DC0F6FF2EC0F7FF4D
:10194000000EF86E0F0EF76403D00800F55005D0B6
:10195000F6CFE1FFF7CFE2FFE7502F6E2F50016E79
:10196000026A29C003F048EC21F02A50D96EDA6AE5
:10197000DE2A000EDD2288EF0CF01200700ED36E0E
:10198000B0EC24F0EFEC21F0190E096E0950D8A448
:10199000100E0A6EDBEC22F0010E096E000E23EC35
:1019A00024F04E0E096E0950D8A4100E0A6EDBEC1E
:1019B00022F0060E5E6E130E5D6EAE0EE82EFED7A2
:1019C0005D2EFCD75E2EFAD778EC24F0000E0001D5
:1019D000E06F000EE16F000EE26F000EE36F000E8D
:1019E000E46F000EE56F000EE66F000EE76FE96B27
:1019F000000EE86F000E2FEC23F001500001E027ED
:101A00000250E123000EE223000EE323010E2FEC2F
:101A100023F001500001E4270250E523000EE623E5
:101A2000000EE723060E5D6E300EE82EFED75D2E0B
:101A3000FCD700D00001E84BE92BE9BF29EF0DF0FE
:101A4000E95109E10A0EE85DD8A029EF0DF02BEF6E
:101A50000DF0FAEF0CF0E0C001F0E1C002F0E2C0DE
:101A600003F0E3C004F00A0E056E000E066E000ED1
:101A7000076E000E086E32EC1EF001C0ECF002C0E2
:101A8000EDF0E4C001F0E5C002F0E6C003F0E7C00D
:101A900004F00A0E056E000E066E000E076E000EB4
:101AA000086E32EC1EF001C0EAF002C0EBF000015B
:101AB000EDBF63EF0DF0ED5108E1EC05D8A063EF49
:101AC0000DF065EF0DF012EF0EF0ECC001F0EDC07F
:101AD00002F0000E02BEFF0E036E046E010E4EEC0D
:101AE0001BF001C040F002C041F003C042F004C04E
:101AF00043F0000E446EC00E456E7F0E466E440EDF
:101B0000476E3AEC1FF0D8B088EF0DF08AEF0DF079
:101B100012EF0EF00001EBBF96EF0DF0EB5108E174
:101B2000EA05D8A096EF0DF098EF0DF012EF0EF049
:101B3000EAC001F0EBC002F0000E02BEFF0E036E21
:101B4000046E010E4EEC1BF001C040F002C041F0EB
:101B500003C042F004C043F0000E446EC00E456E58
:101B60007F0E466E440E476E3AEC1FF0D8B0BBEFC6
:101B70000DF0BDEF0DF012EF0EF0000E406E000EF6
:101B8000416E000E426E000E436EECC001F0EDC0DF
:101B900002F0000E02BEFF0E036E046E010E4EEC4C
:101BA0001BF001C03CF002C03DF003C03EF004C099
:101BB0003FF0000E136E000E146E000E156E400EF8
:101BC000166EEAC001F0EBC002F0000E02BEFF0E7E
:101BD000036E046E010E4EEC1BF001C00FF002C04C
:101BE00010F003C011F004C012F086EC15F00FC025
:101BF00038F010C039F011C03AF012C03BF00CECD4
:101C000023F038C044F039C045F03AC046F03BC03C
:101C100047F03AEC1FF0D8A010EF0EF012EF0EF0E4
:101C200039EF0EF0000E096E000E23EC24F03D0E8D
:101C3000096E0950D8A4100E0A6EDBEC22F0010EDA
:101C4000096E000E23EC24F02B0E096E0950D8A467
:101C5000100E0A6EDBEC22F00B0E5E6E260E5D6E31
:101C60005E0EE82EFED75D2EFCD75E2EFAD7E6EF8D
:101C70000CF0000E136E400E146E1C0E156E460E08
:101C8000166EECC001F0EDC002F0000E02BEFF0EB9
:101C9000036E046E010E4EEC1BF001C00FF002C08B
:101CA00010F003C011F004C012F086EC15F00FC064
:101CB00040F010C041F011C042F012C043F0ECC03F
:101CC00001F0EDC002F0000E02BEFF0E036E046EC6
:101CD000010E4EEC1BF001C03CF002C03DF003C011
:101CE0003EF004C03FF0000E136E000E146E000EA6
:101CF000156E400E166EEAC001F0EBC002F0000E49
:101D000002BEFF0E036E046E010E4EEC1BF001C00E
:101D10000FF002C010F003C011F004C012F086EC06
:101D200015F00FC038F010C039F011C03AF012C0F1
:101D30003BF00CEC23F038C044F039C045F03AC019
:101D400046F03BC047F099EC17F040C0C0F041C0EE
:101D5000C1F042C0C2F043C0C3F0C0C059F0C1C01E
:101D60005AF0C2C05BF0C3C05CF01FEC10F059C069
:101D7000EEF05AC0EFF05BC0F0F05CC0F1F0590E2D
:101D8000136E470E146EBC0E156E330E166EEEC03B
:101D90000FF0EFC010F0F0C011F0F1C012F086ECBF
:101DA00015F00FC0D4F010C0D5F011C0D6F012C09D
:101DB000D7F0EEC013F0EFC014F0F0C015F0F1C092
:101DC00016F0D4C00FF0D5C010F0D6C011F0D7C0B7
:101DD00012F086EC15F00FC0D8F010C0D9F011C089
:101DE000DAF012C0DBF0EB0E2C6EFF0E2D6E930EB0
:101DF0002E6E3A0E2F6E730E136E7F0E146E750ECE
:101E0000156E390E166EEEC00FF0EFC010F0F0C078
:101E100011F0F1C012F086EC15F00FC028F010C0E0
:101E200029F011C02AF012C02BF02BEC13F028C0BF
:101E3000DCF029C0DDF02AC0DEF02BC0DFF0000EA0
:101E4000406E000E416E800E426E3F0E436EEEC03D
:101E500013F0EFC014F0F0C015F0F1C016F0D8C0C8
:101E60000FF0D9C010F0DAC011F0DBC012F086EC30
:101E700015F00FC02CF010C02DF011C02EF012C0C4
:101E80002FF0DCC028F0DDC029F0DEC02AF0DFC072
:101E90002BF02BEC13F028C044F029C045F02AC0E9
:101EA00046F02BC047F099EC17F040C0C4F041C099
:101EB000C5F042C0C6F043C0C7F0C4C028F0C5C0DA
:101EC00029F0C6C02AF0C7C02BF0330E2C6E930E3B
:101ED0002D6E880E2E6EC30E2F6E2BEC13F028C0C5
:101EE000C8F029C0C9F02AC0CAF02BC0CBF0C8C0C6
:101EF0004FF0C9C050F0CAC051F0CBC052F0A00E94
:101F0000536E556A020E546E28EC1CF0000E096EDA
:101F1000000E23EC24F0670E096E0950D8A4100EB1
:101F20000A6EDBEC22F0A00E096E0A6ADBEC22F0EE
:101F3000750E096E0950D8A4100E0A6EDBEC22F063
:101F40000001EA51EC5D5D6EEB51ED595E6E5DC0D6
:101F5000CCF05EC0CDF0000ECDBFFF0ECE6FCF6FC8
:101F6000000E446EC00E456E7F0E466E440E476EE8
:101F7000CCC001F0CDC002F0CEC003F0CFC004F061
:101F8000010E4EEC1BF001C040F002C041F003C056
:101F900042F004C043F099EC17F040C00FF041C08C
:101FA00010F042C011F043C012F0000E136E000E8C
:101FB000146EA00E156E400E166E86EC15F00FC056
:101FC000D0F010C0D1F011C0D2F012C0D3F0D0C008
:101FD0004FF0D1C050F0D2C051F0D3C052F0B00E8B
:101FE000536E556A020E546E28EC1CF0010E096EF9
:101FF000000E23EC24F05F0E096E0950D8A4100ED9
:102000000A6EDBEC22F0B00E096E0A6ADBEC22F0FD
:102010007B0E096E0950D8A4100E0A6EDBEC22F07C
:10202000330E5E6EBB0E5D6EE00EE82EFED75D2EAB
:10203000FCD75E2EFAD7E6EF0CF0FEEFBFF000C142
:102040009CF001C19DF002C19EF003C19FF059C0F8
:102050009CF05AC09DF05BC09EF05CC09FF00001F8
:10206000836B000E826F9F5109E1800E9E5DD8A0A8
:102070003CEF10F03EEF10F045EF10F09FAF43EF54
:1020800010F045EF10F09FEF10F0D8909C35606F86
:102090009D35616F9E35626F9F35636F6051611131
:1020A00062116311D8A457EF10F059EF10F06BEFE5
:1020B00010F0000E9C6F000E9D6F800E9E6FFF0E45
:1020C0009F6F9CC059F09DC05AF09EC05BF09FC0AE
:1020D0005CF02AEF13F09FAF70EF10F072EF10F08A
:1020E0007FEF10F0FD6B210EFC6FFF0E9C6FFF0E5B
:1020F0009D6FFF0E9E6F7F0E9F6F61EF10F0E70EDA
:102100008227FF0E83239CC00FF09DC010F09EC05D
:1021100011F09FC012F0000E136E000E146E000E30
:10212000156E4C0E166E86EC15F00FC09CF010C0AC
:102130009DF011C09EF012C09FF0CCEF10F0800E09
:102140009E5D7F0E9F59D8A0A8EF10F0AAEF10F067
:10215000B4EF10F059C059F05AC05AF05BC05BF0B0
:102160005CC05CF02AEF13F0800E9E1909E13F0E6F
:102170009F199C119D11D8A4C0EF10F0C2EF10F070
:10218000CCEF10F0000E596E000E5A6E000E5B6E12
:10219000000E5C6E2AEF13F00D0E00019C27FB0E63
:1021A0009D234A0E9E23000E9F239CC060F09DC07D
:1021B00061F09EC062F09FC063F0180EE5EF10F072
:1021C000D8906333623361336033E82EE0EF10F070
:1021D000810E6025646FFF0E6121656F6451822757
:1021E00065518323FF0E9C15606FFF0E9D15616F77
:1021F0007F0E9E15626F000E9F15636FF30E6025B4
:102200009C6F040E61219D6F350E62219E6F3F0E03
:1022100063219F6F9CC038F09DC039F09EC03AF09A
:102220009FC03BF0000E3C6E000E3D6E800E3E6E79
:102230003F0E3F6E0CEC23F038C09CF039C09DF08F
:102240003AC09EF03BC09FF09CC040F09DC041F062
:102250009EC042F09FC043F0000E2C6E000E2D6E0B
:10226000000E2E6E400E2F6E9CC028F09DC029F0EF
:102270009EC02AF09FC02BF02BEC13F028C044F036
:1022800029C045F02AC046F02BC047F099EC17F062
:1022900040C08CF041C08DF042C08EF043C08FF042
:1022A0008CC00FF08DC010F08EC011F08FC012F0F6
:1022B0008CC013F08DC014F08EC015F08FC016F0D6
:1022C00086EC15F00FC090F010C091F011C092F0A4
:1022D00012C093F090C00FF091C010F092C011F0B6
:1022E00093C012F090C013F091C014F092C015F09A
:1022F00093C016F086EC15F00FC094F010C095F066
:1023000011C096F012C097F0130E2C6ECE0E2D6EEB
:10231000CC0E2E6E3E0E2F6E260E136E9E0E146E7B
:10232000780E156E3E0E166E94C00FF095C010F02C
:1023300096C011F097C012F086EC15F00FC028F08F
:1023400010C029F011C02AF012C02BF02BEC13F0B2
:1023500028C098F029C099F02AC09AF02BC09BF0B1
:1023600098C00FF099C010F09AC011F09BC012F005
:1023700094C013F095C014F096C015F097C016F0F5
:1023800086EC15F00FC06AF010C06BF011C06CF055
:1023900012C06DF0AA0E2C6EAA0E2D6E2A0E2E6E95
:1023A0003F0E2F6EEE0E136EE90E146E910E156E2B
:1023B0003E0E166E94C00FF095C010F096C011F04E
:1023C00097C012F086EC15F00FC028F010C029F06D
:1023D00011C02AF012C02BF02BEC13F028C098F09B
:1023E00029C099F02AC09AF02BC09BF098C00FF03A
:1023F00099C010F09AC011F09BC012F090C013F079
:1024000091C014F092C015F093C016F086EC15F050
:102410000FC06EF010C06FF011C070F012C071F0FC
:102420006EC028F06FC029F070C02AF071C02BF088
:102430006AC02CF06BC02DF06CC02EF06DC02FF078
:102440002BEC13F028C066F029C067F02AC068F0B2
:102450002BC069F0000E136E000E146E000E156E88
:102460003F0E166E9CC00FF09DC010F09EC011F084
:102470009FC012F086EC15F00FC098F010C099F0D4
:1024800011C09AF012C09BF098C00FF099C010F0E4
:102490009AC011F09BC012F09CC013F09DC014F0C4
:1024A0009EC015F09FC016F086EC15F00FC084F0AA
:1024B00010C085F011C086F012C087F082C001F014
:1024C00083C002F0000E02BEFF0E036E046E010E0A
:1024D0004EEC1BF001C088F002C089F003C08AF006
:1024E00004C08BF08CC013F08DC014F08EC015F0BA
:1024F0008FC016F066C02CF067C02DF068C02EF0BB
:1025000069C02FF084C028F085C029F086C02AF069
:1025100087C02BF02BEC13F028C00FF029C010F06F
:102520002AC011F02BC012F086EC15F00FC072F02B
:1025300010C073F011C074F012C075F0D10E136E9C
:10254000F70E146E170E156E370E166E88C00FF04C
:1025500089C010F08AC011F08BC012F086EC15F023
:102560000FC02CF010C02DF011C02EF012C02FF0B3
:1025700072C028F073C029F074C02AF075C02BF027
:102580002BEC13F028C076F029C077F02AC078F041
:102590002BC079F084C03CF085C03DF086C03EF091
:1025A00087C03FF076C038F077C039F078C03AF095
:1025B00079C03BF00CEC23F038C07AF039C07BF0E6
:1025C0003AC07CF03BC07DF09CC02CF09DC02DF04B
:1025D0009EC02EF09FC02FF07AC028F07BC029F05B
:1025E0007CC02AF07DC02BF02BEC13F028C07EF0CD
:1025F00029C07FF02AC080F02BC081F07EC028F077
:102600007FC029F080C02AF081C02BF0800E136EAD
:10261000710E146E310E156E3F0E166E88C00FF0DF
:1026200089C010F08AC011F08BC012F086EC15F052
:102630000FC02CF010C02DF011C02EF012C02FF0E2
:102640002BEC13F028C059F029C05AF02AC05BF0D7
:102650002BC05CF012002B50800B346E2B502B24BF
:10266000366E2AAE36EF13F038EF13F039EF13F071
:1026700036803650D8B43FEF13F041EF13F055EFEA
:1026800013F03628D8A447EF13F049EF13F051EFB9
:1026900013F0000E286E000E296E000E2A6E000E3A
:1026A0002B6E2A8E2B6A5DEF13F0000E286E000E43
:1026B000296E000E2A6E000E2B6E2F50800B356E89
:1026C00034503518D8B467EF13F069EF13F06AEFA0
:1026D00013F0348C2F502F24356E2EAE72EF13F082
:1026E00074EF13F075EF13F035803550D8B47BEFED
:1026F00013F07DEF13F091EF13F03528D8A483EF9A
:1027000013F085EF13F08DEF13F0000E2C6E000E1A
:102710002D6E000E2E6E000E2F6E2E8E2F6A99EFEC
:1027200013F0000E2C6E000E2D6E000E2E6E000E9D
:102730002F6E3650355CD8B0A0EF13F0A2EF13F037
:10274000C9EF13F034ACA7EF13F0A9EF13F0ABEF20
:1027500013F0800E341A36C037F035C036F037C06B
:1027600035F028C037F02CC028F037C02CF029C035
:1027700037F02DC029F037C02DF02AC037F02EC019
:102780002AF037C02EF02BC037F02FC02BF037C007
:102790002FF0376A365035C030F0316A305E000EA7
:1027A000315A31BEDDEF13F0315009E11A0E305CC1
:1027B000D8A0DDEF13F0DFEF13F016EF14F0285080
:1027C00029102A102B10D8A4E8EF13F0EBEF13F028
:1027D000010EECEF13F0000E376E000E286E000EA7
:1027E000296E000E2A6E000E2B6E35C036F01FEFDC
:1027F00014F037A0FEEF13F000EF14F006EF14F022
:10280000D89037300109376E08EF14F0D89037327E
:1028100028A00DEF14F00FEF14F010EF14F0378E26
:102820002B342B322A3229322832362A3550365C64
:10283000D8A01DEF14F01FEF14F0F9EF13F034BC23
:1028400024EF14F026EF14F066EF14F03650D8A4FD
:102850002CEF14F02EEF14F038EF14F0000E286E69
:10286000000E296E000E2A6E000E2B6E85EF15F0FD
:102870002C5028262D5029222E502A222F502B2230
:102880002BA045EF14F047EF14F0F3EF14F037A04E
:102890004CEF14F04EEF14F054EF14F0D8903730A2
:1028A0000109376E56EF14F0D890373228A05BEF4D
:1028B00014F05DEF14F05EEF14F0378E2B342B32F2
:1028C0002A3229322832362AF3EF14F02C50285CB1
:1028D0002D5029582E502A582B50800A306E2F50D8
:1028E000800A3058D8B077EF14F079EF14F0A4EFE5
:1028F00014F028502C5C306E29502D58316E2A501F
:102900002E58326E2B502F58336EFF0E3024286E07
:10291000FF0E3120296EFF0E32202A6EFF0E33206B
:102920002B6E800E341A376C3750D8A49AEF14F0FF
:102930009CEF14F0ACEF14F0010E2826000E2922B3
:102940002A222B22ACEF14F02C50285E2D50295A4D
:102950002E502A5A2F502B5A285029102A102B104B
:10296000D8A4B5EF14F0B7EF14F0ECEF14F0375033
:10297000D8A4BDEF14F0BFEF14F0ECEF14F0000E8C
:10298000286E000E296E000E2A6E000E2B6E85EF4B
:1029900015F0D890283629362A362B3637AED3EFA5
:1029A00014F0D5EF14F0D6EF14F0288037A0DBEF49
:1029B00014F0DDEF14F0E1EF14F0D8803736E3EFD8
:1029C00014F0D89037363650D8B4E9EF14F0EBEF66
:1029D00014F0ECEF14F036062AAEF1EF14F0F3EF3A
:1029E00014F0C9EF14F0356A37AEF9EF14F0FBEFCD
:1029F00014F013EF15F037C030F07F0E3016D8B456
:102A000004EF15F006EF15F00AEF15F0010E356E24
:102A100013EF15F028A00FEF15F011EF15F013EFDD
:102A200015F006EF15F03550D8B419EF15F01BEF7F
:102A300015F046EF15F0010E2826000E29222A2255
:102A40002B222BA026EF15F028EF15F046EF15F0FE
:102A500028C030F029C031F02AC032F02BC033F04A
:102A60003334333232323132303230C028F031C078
:102A700029F032C02AF033C02BF03628D8B443EF07
:102A800015F045EF15F046EF15F0362A3628D8B484
:102A90004CEF15F04EEF15F056EF15F03650D8A468
:102AA00054EF15F056EF15F067EF15F0000E286E95
:102AB000000E296E000E2A6E000E2B6E3650D8A422
:102AC00064EF15F066EF15F067EF15F0346A36A085
:102AD0006CEF15F06EEF15F071EF15F02A8E72EFB6
:102AE00015F02A9ED89036302B6E34AE7AEF15F062
:102AF0007CEF15F07DEF15F02B8E28C028F029C053
:102B000029F02AC02AF02BC02BF012001250800BA3
:102B10001B6E12501224216E11AE91EF15F093EF3F
:102B200015F094EF15F021802150D8B49AEF15F0EC
:102B30009CEF15F0AFEF15F02128D8A4A2EF15F007
:102B4000A4EF15F0ACEF15F0000E0F6E000E106E36
:102B5000000E116E000E126E118EB7EF15F0000E02
:102B60000F6E000E106E000E116E000E126E1650DB
:102B7000800B1B1A16501624206E15AEC2EF15F0EE
:102B8000C4EF15F0C5EF15F020802050D8B4CBEF7E
:102B900015F0CDEF15F0E0EF15F02028D8A4D3EF15
:102BA00015F0D5EF15F0DDEF15F0000E136E000EE9
:102BB000146E000E156E000E166E158EE8EF15F0F1
:102BC000000E136E000E146E000E156E000E166EC3
:102BD0002050D8B4EEEF15F0F0EF15F0F8EF15F047
:102BE0002150D8A4F6EF15F0F8EF15F002EF16F02B
:102BF000000E0F6E000E106E000E116E000E126EA3
:102C000098EF17F015500F02F3CF26F0F4CF27F00E
:102C100026501C6E1D6A1E6A1F6A2750226E236A88
:102C2000246A256A14501002F3CF26F0F4CF27F05F
:102C300026501C26000E1D221E221F22275022264F
:102C4000000E23222422252213501102F3CF26F056
:102C5000F4CF27F026501C26000E1D221E221F2214
:102C600027502226000E2322242225221EC01FF0D8
:102C70001DC01EF01CC01DF01C6A13501002F3CFC3
:102C800026F0F4CF27F026501C2627501D22000ED8
:102C90001E22000E1F2214500F02F3CF26F0F4CF95
:102CA00027F026501C2627501D22000E1E22000E43
:102CB0001F221EC01FF01DC01EF01CC01DF01C6A8C
:102CC00013500F02F3CF26F0F4CF27F026501C2626
:102CD00027501D22000E1E22000E1F22155010022A
:102CE000F3CF26F0F4CF27F02650222627502322B8
:102CF000000E2422000E252214501102F3CF26F0DC
:102D0000F4CF27F02650222627502322000E24221B
:102D1000000E252215501102F3CF26F0F4CF27F034
:102D20002650176E2750186E196A1A6A19C01AF0C1
:102D300018C019F017C018F0176A1750222618503B
:102D40002322195024221A5025221CC017F01DC01E
:102D500018F01EC019F01FC01AF0190EB5EF16F0CA
:102D6000D8901A32193218321732E82EB0EF16F016
:102D70001750222618502322195024221A50252297
:102D80001EC01FF01DC01EF01CC01DF01C6A20508C
:102D900021C017F0186A1726000E1822820E172479
:102DA000266EFF0E1820276EEBEF16F0D890223615
:102DB0002336243625361FAEE0EF16F0E2EF16F08C
:102DC000E3EF16F02280D8901C361D361E361F36D3
:102DD0002606D8A0270624AEF0EF16F0F2EF16F084
:102DE000D6EF16F0206A1FAEF8EF16F0FAEF16F0E5
:102DF0001EEF17F0FF0E1C14176EFF0E1D14186E39
:102E0000FF0E1E14196E7F0E1F141A6E1750181025
:102E100019101A10D8B40FEF17F011EF17F015EFC3
:102E200017F0010E206E1EEF17F022A01AEF17F018
:102E30001CEF17F01EEF17F011EF17F02050D8B469
:102E400024EF17F026EF17F04AEF17F0010E2226B5
:102E5000000E23222422252225A031EF17F033EF84
:102E600017F04AEF17F022C017F023C018F024C063
:102E700019F025C01AF01A341A32193218321732E2
:102E800017C022F018C023F019C024F01AC025F092
:102E9000264A272A27BE55EF17F0275008E1262893
:102EA000D8A055EF17F057EF17F061EF17F0000EAD
:102EB000226E000E236E800E246E7F0E256E8EEF26
:102EC00017F027BE6EEF17F0275006E12604D8B0A2
:102ED0006CEF17F06EEF17F079EF17F0000E226E1F
:102EE000000E236E000E246E000E256E1B6A8EEF00
:102EF00017F026C021F0FF0E2216FF0E23167F0EBC
:102F00002416000E251621A088EF17F08AEF17F07F
:102F10008BEF17F0248ED8902130256E1B50251290
:102F200022C00FF023C010F024C011F025C012F011
:102F300012004350800B506E43504324576E42AEF4
:102F4000A4EF17F0A6EF17F0A7EF17F05780575030
:102F5000D8B4ADEF17F0AFEF17F0C3EF17F0572865
:102F6000D8A4B5EF17F0B7EF17F0BFEF17F0000ECA
:102F7000406E000E416E000E426E000E436E428E99
:102F8000436ACBEF17F0000E406E000E416E000E4C
:102F9000426E000E436E4750800B501A4750472434
:102FA000586E46AED6EF17F0D8EF17F0D9EF17F0FE
:102FB00058805850D8B4DFEF17F0E1EF17F0F5EF75
:102FC00017F05828D8A4E7EF17F0E9EF17F0F1EF62
:102FD00017F0000E446E000E456E000E466E000E99
:102FE000476E468E476AFDEF17F0000E446E000EE6
:102FF000456E000E466E000E476E4450451046105A
:103000004710D8A406EF18F008EF18F020EF18F0DA
:10301000000E406E000E416E000E426E000E436EBA
:10302000800E42127F0E43125050431240C040F0B7
:1030300041C041F042C042F043C043F05FEF19F09D
:103040005750D8A426EF18F028EF18F032EF18F0F8
:10305000000E406E000E416E000E426E000E436E7A
:103060005FEF19F0585057C048F0496A485E000EAB
:10307000495A7F0E4824516E000E4920526E40C0BE
:103080004CF041C04DF042C04EF043C04FF0000E36
:10309000406E000E416E000E426E000E436E000E3A
:1030A000536E000E546E000E556E000E566E586A2A
:1030B00092EF18F05850D8B460EF18F062EF18F0A3
:1030C00079EF18F0D8904C364D364E364F36D890B2
:1030D000403641364236433656AE71EF18F073EF44
:1030E00018F074EF18F04080D890533654365536A7
:1030F000563644504C5C45504D5846504E584750FB
:103100004F58D8A086EF18F088EF18F091EF18F01C
:10311000568C44504C5E45504D5A46504E5A47507E
:103120004F5A582A190E586498EF18F09AEF18F071
:103130005AEF18F04C504D104E104F10D8B4A3EF6A
:1031400018F0A5EF18F0BDEF18F05380BDEF18F0A0
:10315000D890403641364236433656AEB2EF18F07C
:10316000B4EF18F0B5EF18F04080D89053365436CD
:10317000553656365106D8A0520642AEC2EF18F068
:10318000C4EF18F0A8EF18F0586A56AECAEF18F05E
:10319000CCEF18F0F0EF18F0FF0E5314486EFF0E4E
:1031A0005414496EFF0E55144A6E7F0E56144B6E22
:1031B000485049104A104B10D8B4E1EF18F0E3EF33
:1031C00018F0E7EF18F0010E586EF0EF18F040A07D
:1031D000ECEF18F0EEEF18F0F0EF18F0E3EF18F066
:1031E0005850D8B4F6EF18F0F8EF18F01CEF19F0BB
:1031F000010E4026000E41224222432243A003EF4B
:1032000019F005EF19F01CEF19F040C048F041C06B
:1032100049F042C04AF043C04BF04B344B324A3283
:103220004932483248C040F049C041F04AC042F0FB
:103230004BC043F0514A522A52BE27EF19F0525068
:1032400008E15128D8A027EF19F029EF19F034EF41
:1032500019F0000E526E5168000E406E000E416E65
:10326000000E426E000E436E52BE41EF19F05250F6
:1032700006E15104D8B03FEF19F041EF19F04DEFDE
:1032800019F0526A000E516E000E406E000E416E33
:10329000000E426E000E436E506A51C057F057A0A8
:1032A00054EF19F056EF19F059EF19F0428E5AEF1A
:1032B00019F0429ED8905730436E14EF18F0120068
:1032C0000001FBBF66EF19F068EF19F069EF19F024
:1032D0005F92FBBF70EF19F06EEF19F075EF19F008
:1032E000226A010E216E79EF19F0FAC021F0FBC0BD
:1032F00022F0F8C024F0F9C025F018501910D8A415
:1033000084EF19F087EF19F0010E88EF19F0000E25
:10331000236E5FA88EEF19F090EF19F09CEF19F073
:103320002350D8B496EF19F098EF19F09CEF19F0EC
:10333000FE0E2426FF0E2522780E1A18D8B4A3EF0D
:1033400019F0A5EF19F0AAEF19F0206A410E1F6ECF
:10335000ADEF19F0206A610E1F6E1FC01EF0286AC3
:103360001F0E276E0101236BE9EF19F02706D8A085
:10337000280618500F0B266E0A0E2660C2EF19F0B1
:10338000C4EF19F0C8EF19F0300E2626CBEF19F074
:103390001E50F60F2626040E2724D96E010E282073
:1033A000DA6E26C0DFFF2106D8A022062406D8A0A8
:1033B000250618C01BF019C01CF0040E1D6ED89015
:1033C0001C321B321D2EDFEF19F01BC018F01CC081
:1033D00019F028BEF5EF19F0285009E1020E275C1C
:1033E000D8A0F5EF19F0F7EF19F021EF1AF0185007
:1033F0001910D8A4FEEF19F000EF1AF0B6EF19F08B
:1034000022BE0DEF1AF0225006E12104D8B00BEFD6
:103410001AF00DEF1AF0B6EF19F025BE18EF1AF0FA
:10342000255008E12404D8A018EF1AF01AEF1AF07A
:1034300021EF1AF05FB21FEF1AF021EF1AF0B6EF8A
:1034400019F05FA826EF1AF028EF1AF050EF1AF0E3
:103450002350D8B42EEF1AF030EF1AF050EF1AF0D4
:103460000001FA51FB11D8B438EF1AF03AEF1AF014
:1034700050EF1AF02706D8A02806040E2724D96E8C
:10348000010E2820DA6E1AC0DFFF2706D8A0280612
:10349000040E2724D96E010E2820DA6E300EDF6E5E
:1034A00017C00FF0040E2724106E010E2820116E95
:1034B00024C012F025C013F09DEC21F00FC017F0CE
:1034C00010C018F0120019BE68EF1AF06BEF1AF076
:1034D000010E6CEF1AF0000E206E0001FBBF73EFBF
:1034E0001AF075EF1AF076EF1AF05F92FBBF7DEFDE
:1034F0001AF07BEF1AF082EF1AF01D6A010E1C6EB3
:1035000086EF1AF0FAC01CF0FBC01DF0F8C01EF0E8
:10351000F9C01FF02050D8A490EF1AF092EF1AF0E3
:1035200099EF1AF05FA497EF1AF099EF1AF0B0EF45
:103530001AF01E06D8A01F062050D8A4A2EF1AF039
:10354000A4EF1AF0A9EF1AF01B6A2B0E1A6EACEF5B
:103550001AF01B6A2D0E1A6E1AC020F0BCEF1AF07A
:103560005FA6B5EF1AF0B7EF1AF0BCEF1AF01E061F
:10357000D8A01F06200E206E226A1F0E216E0101A8
:10358000236BF1EF1AF02106D8A02206040E2124A5
:10359000D96E010E2220DA6E18C001F019C002F0B7
:1035A000046A0A0E036EF1EC20F001C007F002C0BD
:1035B00008F0A4EC23F00750300FDF6E1C06D8A0F3
:1035C0001D061E06D8A01F0618C001F019C002F083
:1035D000046A0A0E036E91EC20F001C018F002C0DC
:1035E00019F022BEFCEF1AF0225008E12104D8A005
:1035F000FCEF1AF0FEEF1AF028EF1BF0185019102C
:10360000D8A405EF1BF007EF1BF0C3EF1AF01DBEA7
:1036100014EF1BF01D5006E11C04D8B012EF1BF094
:1036200014EF1BF0C3EF1AF01FBE1FEF1BF01F506B
:1036300008E11E04D8A01FEF1BF021EF1BF028EFBC
:103640001BF05FB226EF1BF028EF1BF0C3EF1AF060
:103650002050D8B42EEF1BF030EF1BF03BEF1BF0E7
:103660002106D8A02206040E2124D96E010E2220A4
:10367000DA6E20C0DFFF17C00FF0040E2124106E99
:10368000010E2220116E1EC012F01FC013F09DEC1F
:1036900021F00FC017F010C018F01200096E095089
:1036A000D8B455EF1BF057EF1BF079EF1BF004BEB9
:1036B0005EEF1BF05CEF1BF079EF1BF001C005F033
:1036C00002C006F003C007F004C008F0051E061E85
:1036D000071E081E052A000E06220722082205C022
:1036E0000BF006C00CF007C00DF008C00EF081EF23
:1036F0001BF001C00BF002C00CF003C00DF004C0C1
:103700000EF00150021003100410D8A48AEF1BF031
:103710008CEF1BF096EF1BF0000E016E000E026E98
:10372000000E036E000E046E27EF1CF0960E0A6E5C
:10373000A0EF1BF00A2AD8900E320D320C320B3259
:10374000000E0B14056E000E0C14066E000E0D1408
:10375000076EFE0E0E14086E0550061007100810B6
:10376000D8A4B5EF1BF0B7EF1BF09AEF1BF0C5EF35
:103770001BF00A2A010E0B26000E0C220D220E222F
:10378000D8900E320D320C320B32000E0B14056E37
:10379000000E0C14066E000E0D14076EFF0E0E14B4
:1037A000086E0550061007100810D8A4DAEF1BF0B9
:1037B000DCEF1BF0B9EF1BF0E4EF1BF00A06D8902A
:1037C0000B360C360D360E360DBEE9EF1BF0EBEF67
:1037D0001BF0F3EF1BF0020E0A60F1EF1BF0F3EFAA
:1037E0001BF0DEEF1BF00AB0F8EF1BF0FAEF1BF056
:1037F000FBEF1BF00D9ED8900A320AC005F0066A56
:10380000076A086A05C008F0076A066A056A055073
:103810000B1206500C1207500D1208500E120950D0
:10382000D8B415EF1CF017EF1CF01FEF1CF004BE0E
:103830001EEF1CF01CEF1CF01FEF1CF00E8E0BC0D7
:1038400001F00CC002F00DC003F00EC004F0120035
:103850004FC009F050C00AF051C00BF052C00CF03C
:10386000B7EC1EF009C06FF00AC070F04FC038F01E
:1038700050C039F051C03AF052C03BF06FC001F077
:1038800070C002F0000E02BEFF0E036E046E010E49
:103890004EEC1BF001C03CF002C03DF003C03EF016
:1038A00004C03FF00CEC23F038C071F039C072F066
:1038B0003AC073F03BC074F053C03EF0810E3F6ECF
:1038C0003F50D8A4100E406E6FC041F070C042F05F
:1038D0008AEC23F055BE75EF1CF0555008E15404F6
:1038E000D8A075EF1CF077EF1CF0E3EF1CF000019F
:1038F0006E6B000E6D6F9AEF1CF071C00FF072C00E
:1039000010F073C011F074C012F0000E136E000EB0
:10391000146E200E156E410E166E86EC15F00FC05B
:1039200071F010C072F011C073F012C074F0000199
:103930006D4B6E2B54506D5D6E51800A566E555016
:10394000800A5658D8A0A7EF1CF0A9EF1CF07DEF15
:103950001CF071C001F072C002F073C003F074C0BB
:1039600004F0BEEC23F001C009F002C00AF003C06D
:103970000BF004C00CF0B7EC1EF009C06AF00AC0EE
:103980006BF0600E3E6E6E0E3F6E3F50D8A4100E70
:10399000406E54C041F055C042F08AEC23F053C051
:1039A00001F0026A6FEC23F05350012400016C6FA8
:1039B0006CC03EF0600E3F6E406A6AC041F06BC062
:1039C00042F08AEC23F012000001FBBFEAEF1CF08A
:1039D000ECEF1CF0EDEF1CF05F92FBBFF4EF1CF07E
:1039E000F2EF1CF0F9EF1CF01D6A010E1C6EFDEFEA
:1039F0001CF0FAC01CF0FBC01DF0F8C01FF0F9C0AD
:103A000020F0226A1F0E216E0101236B1E6A2FEF28
:103A10001DF02106D8A022061850070B1E6E040EBA
:103A20002124D96E010E2220DA6E1E50300FDF6E77
:103A30001C06D8A01D061F06D8A0200618C01AF024
:103A400019C01BF0D8901B321A32D8901B321A3290
:103A5000D8901B321A321AC018F01BC019F022BEBF
:103A60003AEF1DF0225008E12104D8A03AEF1DF0F2
:103A70003CEF1DF066EF1DF018501910D8A443EF6D
:103A80001DF045EF1DF009EF1DF01DBE52EF1DF0BA
:103A90001D5006E11C04D8B050EF1DF052EF1DF090
:103AA00009EF1DF020BE5DEF1DF0205008E11F045E
:103AB000D8A05DEF1DF05FEF1DF066EF1DF05FB267
:103AC00064EF1DF066EF1DF009EF1DF01E50D8A445
:103AD0006CEF1DF06EEF1DF078EF1DF00001FA5154
:103AE000FB11D8A476EF1DF078EF1DF08DEF1DF0DF
:103AF0005FA87DEF1DF07FEF1DF08DEF1DF021061B
:103B0000D8A02206040E2124D96E010E2220DA6EDE
:103B1000300EDF6E1F06D8A0200617C00FF0040E6F
:103B20002124106E010E2220116E1FC012F020C041
:103B300013F09DEC21F00FC017F010C018F0120028
:103B40000001FBBFA6EF1DF0A8EF1DF0A9EF1DF0CF
:103B50005F92FBBFB0EF1DF0AEEF1DF0B5EF1DF0B3
:103B60001B6A010E1A6EB9EF1DF0FAC01AF0FBC005
:103B70001BF0F8C01CF0F9C01DF01F6A1F0E1E6E6E
:103B80000101236BECEF1DF01E06D8A01F06040EEA
:103B90001E24D96E010E1F20DA6E18C001F019C064
:103BA00002F0046A0A0E036EA9EC22F00150300FF5
:103BB000DF6E1A06D8A01B061C06D8A01D0618C06A
:103BC00001F019C002F0046A0A0E036E3BEC22F009
:103BD00001C018F002C019F01E501F10D8B4F3EF46
:103BE0001DF0F5EF1DF01FEF1EF018501910D8A4AE
:103BF000FCEF1DF0FEEF1DF0C4EF1DF01BBE0BEF40
:103C00001EF01B5006E11A04D8B009EF1EF00BEFAE
:103C10001EF0C4EF1DF01DBE16EF1EF01D5008E192
:103C20001C04D8A016EF1EF018EF1EF01FEF1EF0B8
:103C30005FB21DEF1EF01FEF1EF0C4EF1DF017C0A6
:103C40000FF0040E1E24106E010E1F20116E1CC0FA
:103C500012F01DC013F09DEC21F00FC017F010C042
:103C600018F012000A6A08BE3AEF1EF038EF1EF094
:103C700044EF1EF0081E071E061E056C000E0622ED
:103C800007220822010E0A6E04BE4BEF1EF049EF18
:103C90001EF055EF1EF0041E031E021E016C000EE6
:103CA000022203220422010E0A1A000E0B6E000EDD
:103CB0000C6E000E0D6E000E0E6E055006100710F5
:103CC0000810D8B466EF1EF068EF1EF09EEF1EF0ED
:103CD000010E096E72EF1EF0D890053606360736D3
:103CE0000836092A08AE77EF1EF079EF1EF06CEF68
:103CF0001EF0D8900B360C360D360E360550015C92
:103D0000065002580750035808500458D8A08BEFAB
:103D10001EF08DEF1EF096EF1EF00550015E06506E
:103D2000025A0750035A0850045A0B80D8900832A0
:103D3000073206320532092E79EF1EF00A50D8B448
:103D4000A4EF1EF0A6EF1EF0AEEF1EF00E1E0D1E2D
:103D50000C1E0B6C000E0C220D220E220BC001F06B
:103D60000CC002F00DC003F00EC004F012000B34C2
:103D70000C34126E1250D8A4C0EF1EF0C2EF1EF029
:103D8000CCEF1EF0000E096E000E0A6E000E0B6ED8
:103D9000000E0C6E39EF1FF009C00DF00AC00EF0D6
:103DA0000BC00FF00CC010F0200EDCEF1EF0D8900E
:103DB00010320F320E320D32E82ED7EF1EF00D50BA
:103DC000116E0B8EFF0E0916FF0E0A16FF0E0B1654
:103DD000000E0C16960E125E12BEF3EF1EF0F1EFFF
:103DE0001EF009EF1FF01250800A970FD8B0FBEFBA
:103DF0001EF0FDEF1EF0FFEF1EF0C2EF1EF0D89098
:103E00000C320B320A320932123EFFEF1EF021EF64
:103E10001FF01F0E12640FEF1FF011EF1FF019EFCC
:103E20001FF0C2EF1EF0D89009360A360B360C365A
:103E300012061250D8A41FEF1FF021EF1FF013EF4E
:103E40001FF01150D8B427EF1FF029EF1FF031EF0A
:103E50001FF00C1E0B1E0A1E096C000E0A220B22FC
:103E60000C2209C009F00AC00AF00BC00BF00CC00C
:103E70000CF01200000E4014486E000E4114496E02
:103E8000800E42144A6E7F0E43144B6E4850491008
:103E90004A104B10D8A44FEF1FF051EF1FF059EF0D
:103EA0001FF0000E406E000E416E000E426E000EBE
:103EB000436E000E4414486E000E4514496E800E89
:103EC00046144A6E7F0E47144B6E485049104A10F4
:103ED0004B10D8A46EEF1FF070EF1FF078EF1FF0BB
:103EE000000E446E000E456E000E466E000E476ECC
:103EF00043AE7DEF1FF07FEF1FF088EF1FF0406CA7
:103F0000411ED8B0412A421ED8B0422A800E4356E4
:103F100047AE8DEF1FF08FEF1FF098EF1FF0446C4E
:103F2000451ED8B0452A461ED8B0462A800E4756B0
:103F3000000E401A000E411A000E421A800E431A5B
:103F4000000E441A000E451A000E461A800E471A3B
:103F50004450405C455041584650425847504358A1
:103F6000D8B0B5EF1FF0B7EF1FF0BAEF1FF0D89041
:103F7000BBEF1FF0D8801200076A000E066E0150DA
:103F8000D96EDA6ADECF03F0DDCF04F003C0F6FFAE
:103F900004C0F7FF000EF86E0F0EF76403D00800A0
:103FA000F55005D0F6CFE1FFF7CFE2FFE7502A0A40
:103FB000D8A4DDEF1FF0DFEF1FF008EF20F0015075
:103FC000D96EDA6ADE2A000EDD220250D96EDA6A74
:103FD000020EDF26DF5CD96EDA6ADECF06F0DECFB6
:103FE00007F02AEF20F00A0E0602F3CF03F0F4CF19
:103FF00004F00702F350042605500324066E000E59
:104000000420076E0150D96EDA6ADE2A000EDD2226
:104010000150D96EDA6ADECF03F0DDCF04F003C0C1
:10402000F6FF04C0F7FF000EF86E0F0EF76403D022
:104030000800F55005D0F6CFE1FFF7CFE2FFE750DB
:10404000D00F056E090E056428EF20F02AEF20F04E
:10405000F3EF1FF006C001F007C002F012000001EC
:10406000F851F911D8A437EF20F039EF20F03FEFE5
:1040700020F0F8C00EF0F9C00FF045EF20F0FF0E71
:10408000F8250E6EFF0EF9210F6E5FA04AEF20F0AB
:104090004CEF20F053EF20F00AC001F0026A09C093
:1040A00003F048EC21F00FBE58EF20F05AEF20F05B
:1040B0005CEF20F05FEF20F00F6A000E0E6E0D6ACD
:1040C000000E0C6E6DEF20F0026A200E016E09C02A
:1040D00003F048EC21F00C4A0D2A0E500C5C0D50F8
:1040E000800A0B6E0F50800A0B58D8A07AEF20F090
:1040F0007CEF20F064EF20F05FB081EF20F083EFE1
:1041000020F08AEF20F00AC001F0026A09C003F033
:1041100048EC21F0010E0C24096E000E0D200A6EF1
:104120001200066A04BE99EF20F097EF20F09FEF8F
:1041300020F0036C041ED8B0042A010E066E02BEE5
:10414000A6EF20F0A4EF20F0ACEF20F0016C021EEF
:10415000D8B0022A010E061A086A000E076E035034
:104160000410D8B4B6EF20F0B8EF20F0E0EF20F064
:10417000010E056EC0EF20F0D89003360436052AF4
:1041800004AEC5EF20F0C7EF20F0BCEF20F0D890D0
:10419000073608360350015C04500258D8A0D3EF0C
:1041A00020F0D5EF20F0DAEF20F00350015E04504C
:1041B000025A0780D89004320332052EC7EF20F050
:1041C0000650D8B4E6EF20F0E8EF20F0ECEF20F056
:1041D000076C081ED8B0082A07C001F008C002F01A
:1041E0001200066A02BEF9EF20F0F7EF20F0FFEFB1
:1041F00020F0016C021ED8B0022A010E066E04BE29
:1042000006EF21F004EF21F00AEF21F0036C041E09
:10421000D8B0042A03500410D8B411EF21F013EFE2
:1042200021F037EF21F0010E056E1BEF21F0D89041
:1042300003360436052A04AE20EF21F022EF21F0E8
:1042400017EF21F00350015C04500258D8A02BEF67
:1042500021F02DEF21F031EF21F00350015E0450E9
:10426000025AD89004320332052E22EF21F0065074
:10427000D8B43DEF21F03FEF21F043EF21F0016C86
:10428000021ED8B0022A01C001F002C002F01200E2
:104290000350D8B44EEF21F050EF21F058EF21F049
:1042A0000350D8A456EF21F058EF21F05DEF21F034
:1042B0000150B6EC24F09CEF21F00350D96EDA6A7D
:1042C000090ED926DE50DE10D8B469EF21F06BEF6D
:1042D00021F084EF21F00350D96EDA6A090ED92655
:1042E0000350E16EE26A020EE126DE50E65CE65023
:1042F000800A086EDE50800A0858D8B082EF21F09C
:1043000084EF21F09CEF21F00350D96EDA6A020E9F
:10431000D926DF50046E0350D96EDA6ADF500424C8
:10432000D96EDA6A01C0DFFF0350D96EDA6A020E75
:10433000D926DE2A000EDD2212005FA0A2EF21F0B6
:10434000A4EF21F0ACEF21F010C009F011C00AF089
:104350000FC00BF050EC23F013BEB3EF21F0B1EF20
:1043600021F0B6EF21F0136A000E126E166A000EED
:10437000156EC4EF21F0026A200E016E0FC003F02B
:1043800048EC21F0154A162A1250155C1650800A86
:10439000146E1350800A1458D8A0D1EF21F0D3EF37
:1043A00021F0BBEF21F05FB0D8EF21F0DAEF21F080
:1043B000E2EF21F010C009F011C00AF00FC00BF0BD
:1043C00050EC23F010C001F011C002F06FEC23F0AC
:1043D000125001240F6E13500220106E1200A6EC32
:1043E00024F0680E096EE40EE82EFED7092EFCD7E5
:1043F00000D0000E056E300E84EC24F00D0E096E18
:10440000FC0EE82EFED7092EFCD7000E056E300EEE
:1044100084EC24F0030E096E980EE82EFED7092EC8
:10442000FCD7000E056E300E84EC24F0420EE82E10
:10443000FED700D0000E056E200E84EC24F0420E54
:10444000E82EFED700D0280E5AEC24F0080E5AECC5
:1044500024F0010E5AEC24F0060E096E300EE82E00
:10446000FED7092EFCD700D0060E5AEC24F00C0E15
:104470005AEC24F01200066A000E056E0350041078
:10448000D8B445EF22F047EF22F06FEF22F0010E93
:10449000076E4FEF22F0D89003360436072A04AE99
:1044A00054EF22F056EF22F04BEF22F0D890053671
:1044B00006360350015C04500258D8A062EF22F087
:1044C00064EF22F069EF22F00350015E0450025ABB
:1044D0000580D89004320332072E56EF22F005C033
:1044E00001F006C002F0120039C03CF03AC03DF0C5
:1044F0000001F76B000EF66F8CEF22F038C029F048
:104500003C0E2A6E3BC02BF02C6A43EC08F029507D
:104510000001F6272A50F7233CC0F6FF3DC0F7FF05
:10452000000EF86E0F0EF76403D00800F55005D0AA
:10453000F6CFE1FFF7CFE2FFE7500009D8A4A3EFE1
:1045400022F0A5EF22F07EEF22F0396A000E386EDD
:10455000120003500410D8B4B0EF22F0B2EF22F0F2
:10456000D6EF22F0010E056EBAEF22F0D890033696
:104570000436052A04AEBFEF22F0C1EF22F0B6EFF9
:1045800022F00350015C04500258D8A0CAEF22F078
:10459000CCEF22F0D0EF22F00350015E0450025A1B
:1045A000D89004320332052EC1EF22F001C001F091
:1045B00002C002F01200F2EF22F009C0F6FF0AC0BA
:1045C000F7FF000EF86E0F0EF76403D00800F550E9
:1045D00005D0F6CFE1FFF7CFE2FFE7504BEC24F038
:1045E000094A0A2A09C0F6FF0AC0F7FF000EF86E52
:1045F0000F0EF76403D00800F55005D0F6CFE1FFA9
:10460000F7CFE2FFE7500009D8A409EF23F00BEF42
:1046100023F0DDEF22F01200000E3C1A000E3D1ACE
:10462000000E3E1A800E3F1A38C028F039C029F01B
:104630003AC02AF03BC02BF03CC02CF03DC02DF01E
:104640003EC02EF03FC02FF02BEC13F028C038F006
:1046500029C039F02AC03AF02BC03BF01200056E99
:1046600005C003F0D8900336D89003363C0E0316ED
:10467000C250C30B0310C26EC282C2B242EF23F01B
:1046800044EF23F03DEF23F0C350C4CF03F0046A9E
:1046900003C004F0036A0310016E0450026E12009E
:1046A0000E6A000E0D6E5EEF23F00CC001F0026A80
:1046B0000BC003F048EC21F00D4A0E2A0D500924DE
:1046C000D96E0E500A20DA6EDF500C6E0C50D8A452
:1046D0006CEF23F06EEF23F055EF23F0120001C0D2
:1046E00003F002C004F077EF23F0014A022A01C070
:1046F000D9FF02C0DAFFDF50D8A481EF23F083EFA7
:1047000023F075EF23F00350015C016E0450025852
:10471000026E1200410E4E6E3EC043F0466A000E1D
:10472000456E4D6A000E4C6E430E386E3FC039F038
:1047300040C03AF04E0E3B6E74EC22F03E504524E1
:10474000D96EDA6ADF6A120008BEA9EF23F0ABEF78
:1047500023F0B1EF23F007C007F008C008F0BDEF69
:1047600023F007C009F008C00AF0091E0A1E094A12
:104770000A2A09C007F00AC008F01200F2C005F0CA
:10478000F3C006F0F4C007F0F5C008F001C005F072
:1047900002C006F003C007F004C008F0089E05C080
:1047A00001F006C002F007C003F008C004F01200D8
:1047B0006E0EF66E490EF76E000EF86E0900F5CF1C
:1047C000FEF001EE00F0240EEE6AE806FDE100EED8
:1047D000F2F00C0EEE6AE806FDE15F6A0001BEEF42
:1047E0000CF0036E9BEC24F04E0E0AEC24F0000952
:1047F000D8B4FDEF23F0FFEF23F003EF24F090ECAB
:1048000024F009EF24F0035008090AEC24F0FFEF2C
:1048100023F01200026E38EC24F002C0C9FF9EA6FD
:1048200014EF24F016EF24F00FEF24F09E96C5ACA1
:104830001CEF24F01EEF24F021EF24F0010E22EFF4
:1048400024F0000E12000B6E0950D8A42AEF24F0B9
:104850002CEF24F031EF24F00B50800F0A6E34EF70
:1048600024F00B50C00F0A6E0A505AEC24F01200CC
:10487000C7B43DEF24F03FEF24F038EF24F0C5CF6C
:1048800001F01F0E0116D8A448EF24F04AEF24F0DF
:1048900038EF24F01200086E010E056E0850F00B80
:1048A00084EC24F0010E056E0838F00BF00B84EC5C
:1048B00024F01200086E000E056E0850F00B84EC18
:1048C00024F0000E056E0838F00BF00B84EC24F099
:1048D0001200046E04500409F1EC23F000D00450DF
:1048E000FB0BF1EC23F0210EE82EFED700001200A6
:1048F000010E5AEC24F0060E096E300EE82EFED79B
:10490000092EFCD700D01200066E0650F00B0510E1
:10491000076E0750F1EC23F0075069EC24F0120009
:1049200038EC24F0C584C5B498EF24F09AEF24F055
:1049300093EF24F0120038EC24F0C580C5B0A3EF4B
:1049400024F0A5EF24F09EEF24F0120094869488C2
:10495000800EC76E280EC66EC56A130EC86E120092
:0F4960000D0EC16EB50EC06EC28012001200089F
:020000040001F9
:047FFC00D8EF23F0A7
:020000040030CA
:0E000000FF08191EFF8085FF3FC03FE03F4014
:00000001FF
